:020000040800F2
:10000000FF7F0020F15C0008415D0008415D0008B1
:10001000415D0008415D0008415D000800000000EE
:10002000000000000000000000000000415D00082A
:10003000415D000800000000415D0008C913000890
:10004000415D0008415D0008415D0008415D000818
:10005000415D0008415D0008415D0008415D000808
:10006000415D0008415D0008415D0008415D0008F8
:10007000415D0008415D0008415D0008415D0008E8
:10008000415D0008415D0008415D0008415D0008D8
:10009000F51D0008415D0008415D0008415D000854
:1000A000415D0008415D0008415D0008415D0008B8
:1000B000415D0008415D0008415D0008415D0008A8
:1000C000415D0008415D0008415D0008415D000898
:1000D000415D0008415D0008415D0008415D000888
:1000E000415D0008415D0008415D0008415D000878
:1000F000415D0008415D0008415D0008415D000868
:10010000000000000000000000000000415D000849
:10011000415D0008415D0008415D0008415D000847
:10012000415D0008415D0008415D0008415D000837
:10013000415D0008415D0008000000000000000073
:10014000415D0008415D0008415D000800000000BD
:10015000000000000000000000000000000000009F
:100160000000000000000000415D0008415D000843
:10017000415D0008000000000000000000000000D9
:0801800000000000415D0008D1
:10018800044B05481B1A062B02D9044B03B1184728
:10019800704700BF9F0A00209C0A00200000000052
:1001A80005490648091A891001EBD171491002D096
:1001B800034B03B1184770479C0A00209C0A002093
:1001C8000000000010B5064C237843B9FFF7D8FFAC
:1001D800044B13B10448AFF300800123237010BD12
:1001E8009C0A0020000000006CA7000808B5084B16
:1001F8001BB108480849AFF300800848036813B9E1
:10020800BDE80840CCE7064B002BF9D09847F7E744
:10021800000000006CA70008A00A00209C0A00202B
:100228000000000000B502B4FFB4002005F068F932
:10023800FFBC0949086802BC00BD00BF00B503B493
:100248000549086800F10100086003BC00BD00BF53
:1002580000B500BD00B500BD00000020844641EA9D
:10026800000313F003036DD1403A41D351F8043B26
:1002780040F8043B51F8043B40F8043B51F8043B78
:1002880040F8043B51F8043B40F8043B51F8043B68
:1002980040F8043B51F8043B40F8043B51F8043B58
:1002A80040F8043B51F8043B40F8043B51F8043B48
:1002B80040F8043B51F8043B40F8043B51F8043B38
:1002C80040F8043B51F8043B40F8043B51F8043B28
:1002D80040F8043B51F8043B40F8043B51F8043B18
:1002E80040F8043B51F8043B40F8043B403ABDD287
:1002F800303211D351F8043B40F8043B51F8043B29
:1003080040F8043B51F8043B40F8043B51F8043BE7
:1003180040F8043B103AEDD20C3205D351F8043BB7
:1003280040F8043B043AF9D2043208D0D2071CBF83
:1003380011F8013B00F8013B01D30B8803806046AC
:10034800704700BF082A13D38B078DD010F0030322
:100358008AD0C3F10403D21ADB071CBF11F8013B92
:1003680000F8013B80D331F8023B20F8023B7BE7E1
:10037800043AD9D3013A11F8013B00F8013BF9D20C
:100388000B7803704B7843708B78837060467047A6
:1003980081F0004102E000BF83F0004330B54FEA2E
:1003A80041044FEA430594EA050F08BF90EA020F9B
:1003B8001FBF54EA000C55EA020C7FEA645C7FEA2E
:1003C800655C00F0E2804FEA5454D4EB5555B8BF51
:1003D8006D420CDD2C4480EA020281EA030382EAC2
:1003E800000083EA010180EA020281EA0303362D54
:1003F80088BF30BD11F0004F4FEA01314FF4801C27
:100408004CEA113102D0404261EB410113F0004F38
:100418004FEA03334CEA133302D0524263EB4303EF
:1004280094EA050F00F0A780A4F10104D5F1200E8D
:100438000DDB02FA0EFC22FA05F2801841F10001E8
:1004480003FA0EF2801843FA05F359410EE0A5F1BC
:1004580020050EF1200E012A03FA0EFC28BF4CF0ED
:10046800020C43FA05F3C01851EBE37101F00045A3
:1004780007D54FF0000EDCF1000C7EEB00006EEBB0
:100488000101B1F5801F1BD3B1F5001F0CD349083A
:100498005FEA30004FEA3C0C04F101044FEA445291
:1004A80012F5800F80F09A80BCF1004F08BF5FEA18
:1004B800500C50F1000041EB045141EA050130BDF8
:1004C8005FEA4C0C404141EB010111F4801FA4F19B
:1004D8000104E9D191F0000F04BF01460020B1FAF0
:1004E80081F308BF2033A3F10B03B3F120020CDA28
:1004F8000C3208DD02F1140CC2F10C0201FA0CF006
:1005080021FA02F10CE002F11402D8BFC2F1200C6A
:1005180001FA02F120FA0CFCDCBF41EA0C01904020
:10052800E41AA2BF01EB0451294330BD6FEA040469
:100538001F3C1CDA0C340EDC04F11404C4F1200254
:1005480020FA04F001FA02F340EA030021FA04F366
:1005580045EA030130BDC4F10C04C4F1200220FABD
:1005680002F001FA04F340EA0300294630BD21FAFB
:1005780004F0294630BD94F0000F83F4801306BFC1
:1005880081F480110134013D4EE77FEA645C18BFB5
:100598007FEA655C29D094EA050F08BF90EA020F4C
:1005A80005D054EA000C04BF1946104630BD91EA44
:1005B800030F1EBF0021002030BD5FEA545C05D147
:1005C8004000494128BF41F0004130BD14F5800486
:1005D8003CBF01F5801130BD01F0004545F0FE41FA
:1005E80041F470014FF0000030BD7FEA645C1ABF2F
:1005F800194610467FEA655C1CBF0B46024650EA66
:10060800013406BF52EA033591EA030F41F4002191
:1006180030BD00BF90F0000F04BF0021704730B517
:100628004FF4806404F132044FF000054FF00001EC
:1006380050E700BF90F0000F04BF0021704730B5AD
:100648004FF4806404F1320410F0004548BF404282
:100658004FF000013EE700BF42004FEAE2014FEAD7
:1006680031014FEA02701FBF12F07F4393F07F4FB2
:1006780081F06051704792F0000F14BF93F07F4FE4
:10068800704730B54FF4607401F0004521F0004127
:1006980020E700BF50EA010208BF704730B54FF0AD
:1006A80000050AE050EA010208BF704730B511F0B2
:1006B800004502D5404261EB41014FF4806404F1EA
:1006C80032045FEA915C3FF4DCAE4FF003025FEA6C
:1006D800DC0C18BF03325FEADC0C18BF033202EBF4
:1006E800DC02C2F1200300FA03FC20FA02F001FA4E
:1006F80003FE40EA0E0021FA02F11444C1E600BFED
:1007080070B54FF0FF0C4CF4E06C1CEA11541DBF9F
:100718001CEA135594EA0C0F95EA0C0F00F0DEF86A
:100728002C4481EA030621EA4C5123EA4C5350EA4F
:10073800013518BF52EA033541F4801143F48013A0
:1007480038D0A0FB02CE4FF00005E1FB02E506F031
:100758000042E0FB03E54FF00006E1FB03569CF086
:10076800000F18BF4EF0010EA4F1FF04B6F5007F8C
:1007780064F5407404D25FEA4E0E6D4146EB0606FE
:1007880042EAC62141EA55514FEAC52040EA5E5087
:100798004FEACE2EB4F1FD0C88BFBCF5E06F1ED831
:1007A800BEF1004F08BF5FEA500E50F1000041EB68
:1007B800045170BD06F0004646EA010140EA020015
:1007C80081EA0301B4EB5C04C2BFD4EB0C0541EA37
:1007D800045170BD41F480114FF0000E013C00F34C
:1007E800AB8014F1360FDEBF002001F0004170BD70
:1007F800C4F10004203C35DA0C341BDC04F1140489
:10080800C4F1200500FA05F320FA04F001FA05F214
:1008180040EA020001F0004221F0004110EBD370E1
:1008280021FA04F642EB06015EEA430E08BF20EA0D
:10083800D37070BDC4F10C04C4F1200500FA04F3B0
:1008480020FA05F001FA04F240EA020001F0004142
:1008580010EBD37041F100015EEA430E08BF20EAB5
:10086800D37070BDC4F1200500FA05F24EEA020EFD
:1008780020FA04F301FA05F243EA020321FA04F02C
:1008880001F0004121FA04F220EA020000EBD370E3
:100898005EEA430E08BF20EAD37070BD94F0000FE3
:1008A8000FD101F00046400041EB010111F4801F17
:1008B80008BF013CF7D041EA060195F0000F18BFC8
:1008C800704703F00046520043EB030313F4801F04
:1008D80008BF013DF7D043EA0603704794EA0C0FBE
:1008E8000CEA135518BF95EA0C0F0CD050EA4106D4
:1008F80018BF52EA4306D1D181EA030101F0004151
:100908004FF0000070BD50EA410606BF1046194678
:1009180052EA430619D094EA0C0F02D150EA013684
:1009280013D195EA0C0F05D152EA03361CBF1046C5
:1009380019460AD181EA030101F0004141F0FE4164
:1009480041F470014FF0000070BD41F0FE4141F4E8
:10095800780170BD70B54FF0FF0C4CF4E06C1CEAE8
:1009680011541DBF1CEA135594EA0C0F95EA0C0F9D
:1009780000F0A7F8A4EB050481EA030E52EA033558
:100988004FEA013100F088804FEA03334FF0805579
:1009980045EA131343EA12634FEA022245EA1115A6
:1009A80045EA10654FEA00260EF000419D4208BF57
:1009B800964244F1FD0404F5407402D25B084FEA04
:1009C8003202B61A65EB03055B084FEA32024FF4B0
:1009D80080104FF4002CB6EB020E75EB030E22BF0D
:1009E800B61A754640EA0C005B084FEA3202B6EBCD
:1009F800020E75EB030E22BFB61A754640EA5C007C
:100A08005B084FEA3202B6EB020E75EB030E22BF0B
:100A1800B61A754640EA9C005B084FEA3202B6EB0C
:100A2800020E75EB030E22BFB61A754640EADC00CB
:100A380055EA060E18D04FEA051545EA16754FEA2D
:100A480006164FEAC30343EA52734FEAC2025FEA4B
:100A58001C1CC0D111F4801F0BD141EA00014FF0DA
:100A680000004FF0004CB6E711F4801F04BF0143AB
:100A78000020B4F1FD0C88BFBCF5E06F3FF6AFAEC7
:100A8800B5EB030C04BFB6EB020C5FEA500C50F157
:100A9800000041EB045170BD0EF0004E4EEA1131DA
:100AA80014EB5C04C2BFD4EB0C0541EA045170BDE1
:100AB80041F480114FF0000E013C90E645EA060E25
:100AC8008DE60CEA135594EA0C0F08BF95EA0C0F53
:100AD8003FF43BAF94EA0C0F0AD150EA01347FF49B
:100AE80034AF95EA0C0F7FF425AF104619462CE772
:100AF80095EA0C0F06D152EA03353FF4FDAE1046D5
:100B0800194622E750EA410618BF52EA43067FF425
:100B1800C5AE50EA41047FF40DAF52EA43057FF4B5
:100B2800EBAE12E74FF0FF3C06E000BF4FF0010CC0
:100B380002E000BF4FF0010C4DF804CD4FEA410C24
:100B48007FEA6C5C4FEA430C18BF7FEA6C5C1BD0F1
:100B580001B050EA410C0CBF52EA430C91EA030F72
:100B680002BF90EA020F0020704710F1000F91EACF
:100B7800030F58BF994208BF90422CBFD8176FEA9D
:100B8800E37040F0010070474FEA410C7FEA6C5C6B
:100B980002D150EA013C07D14FEA430C7FEA6C5C72
:100BA800D6D152EA033CD3D05DF8040B704700BF9E
:100BB8008446104662468C461946634600E000BFEC
:100BC80001B5FFF7B7FF002848BF10F1000F01BDBE
:100BD8004DF808EDFFF7F4FF0CBF012000205DF889
:100BE80008FB00BF4DF808EDFFF7EAFF34BF01200E
:100BF80000205DF808FB00BF4DF808EDFFF7E0FFA7
:100C080094BF012000205DF808FB00BF4DF808EDF7
:100C1800FFF7CEFF94BF012000205DF808FB00BF5E
:100C28004DF808EDFFF7C4FF34BF012000205DF840
:100C380008FB00BF4FEA410212F5001215D211D588
:100C48006FF47873B3EB625212D94FEAC12343F0C1
:100C5800004343EA505311F0004F23FA02F018BF43
:100C6800404270474FF00000704750EA013005D10C
:100C780011F0004008BF6FF0004070474FF00000CF
:100C8800704700BF53B94AB9002908BF00281CBFE4
:100C98004FF0FF314FF0FF3000F03CB882B0EC4627
:100CA8002DE9005000F01EF8DDF804E002B00CBC9D
:100CB800704700BF2DE9F041069C154606460F46D1
:100CC800984600F029F805FB01F300FB0838A5FB5E
:100CD8000023B21A434467EB0303C4E90023BDE8C9
:100CE800F08100BF2DE9F041069C904606460F466C
:100CF8001D4600F05FF900FB05F5A0FB082308FB83
:100D08000155B21A2B4467EB0303C4E90023BDE87D
:100D1800F08100BF704700BF00292DE9F043C0F201
:100D2800A6800026002BC0F29C80884694469E46EA
:100D3800154604460F46002B3DD18A4259D9B2FACE
:100D480082F33BB1C3F120029F4020FA02F29D409A
:100D580017439C40290C220CB7FBF1FEA8B201FBFB
:100D68001E7742EA074700FB0EF3BB420AD97F19F8
:100D78000EF1FF3280F00581BB4240F20281AEF1F4
:100D8800020E2F44FF1AA4B2B7FBF1F301FB13774D
:100D980044EA074700FB03F0B84208D97F1903F17A
:100DA800FF3280F0F080B84240F2ED80023B43EA27
:100DB8000E43002203E08B420FD900221346341C55
:100DC80018BF012460424FF0000565EB450158400B
:100DD800514000196941BDE8F083B3FA83F2002A53
:100DE80040F086808B4202D3844500F2DB800123E9
:100DF800E5E712B90123B3FBF2F5B5FA85F000284F
:100E08003BD1781B4FEA154E1FFA85FC0122B0FB37
:100E1800FEF8210C0EFB180741EA07470CFB08F304
:100E2800BB4207D97F1908F1FF3102D2BB4200F259
:100E3800BD808846FF1AA4B2B7FBFEF30EFB1377FA
:100E480044EA07470CFB03FCBC4507D97F1903F1AB
:100E5800FF3102D2BC4500F2A7800B4643EA0843A3
:100E6800ADE752426FEA060663EB43035DE7404293
:100E780061EB41014FF0FF3654E7C0F1200224FA3C
:100E880002F107FA00F385404FEA154ED74019439F
:100E9800B7FBFEF20B0C0EFB12771FFA85FC43EA38
:100EA80007430CFB02F79F4204FA00F407D95B19C9
:100EB80002F1FF3074D29F4272D9023A2B44DF1BF1
:100EC80089B2B7FBFEF80EFB187341EA03430CFB2B
:100ED80008F79F4208D95B1908F1FF315CD29F429D
:100EE8005AD9A8F102082B44D81B48EA02428EE7D7
:100EF800C2F120032CFA03F10EFA02FE20FA03F7DE
:100F080041EA0E0E08FA02F028FA03F14FEA1E45EC
:100F18003843B1FBF5F8030C05FB18111FFA8EF7DF
:100F280043EA014107FB08F38B420CFA02FC09D99A
:100F380011EB0E0108F1FF3930D28B422ED9A8F1FE
:100F480002087144C91A80B2B1FBF5F305FB13110D
:100F580040EA014107FB03F78F4208D911EB0E0164
:100F680003F1FF3016D28F4214D9023B714443EA91
:100F78000843C91BA3FB0C89494509D305D00022A6
:100F88001DE79646FEE6134611E794404445F6D21F
:100F9800013BF4E70346EAE78846A5E7C846D1E7F8
:100FA80002468CE713460AE7023B57E7A8F1020816
:100FB8002F443FE72DE9F041002B44D18A421546E2
:100FC80004464FD9B2FA82F70E464FB1C7F1200353
:100FD800B94020FA03F602FA07F50E4300FA07F4BF
:100FE8004FEA154E230CB6FBFEF0AFB20EFB1061B4
:100FF80043EA014307FB00F1994209D95B1900F163
:10100800FF3280F0EC80994240F2E98002382B44AC
:101018005A1AA4B2B2FBFEF30EFB132244EA0242B0
:1010280007FB03F7974208D9521903F1FF3180F003
:10103800D880974240F2D580023B43EA0040002620
:101048003146BDE8F0818B4247D8B3FA83F6002ECB
:1010580048D18B4202D3824200F2CD800120314632
:10106800BDE8F08112B90125B5FBF2F5B5FA85F8AE
:10107800B8F1000F77D14A1B4FEA154EAFB20126DF
:10108800B2FBFEF0230C0EFB102143EA014107FBE3
:1010980000F38B4207D9491900F1FF3202D28B4283
:1010A80000F2BA801046C91AA4B2B1FBFEF30EFBD7
:1010B800131144EA014407FB03F7A74208D964194E
:1010C80003F1FF3280F08F80A74240F28C80023B10
:1010D80043EA00403146BDE8F081002630463146FB
:1010E800BDE8F081C6F1200422FA04F5B3402B4391
:1010F80020FA04FC01FA06F721FA04F54FEA134E28
:101108004CEA0707B5FBFEF8390C0EFB18551FFA19
:1011180083FC41EA05450CFB08F1A94202FA06F2F4
:1011280004D9ED1808F1FF3467D3A0466D1ABFB291
:10113800B5FBFEF40EFB145547EA05410CFB04FC15
:101148008C4504D9C91804F1FF355CD32C4644EA10
:101158000844CCEB0101A4FB0223994248D344D0B4
:10116800204600266CE7C8F1200401FA08F305FAC6
:1011780008F520FA04F7E1404FEA154E1F43B1FB8A
:10118800FEF63A0C0EFB16111FFA85FC42EA0143E3
:101198000CFB06F29A4200FA08F407D95B1906F12B
:1011A800FF3137D29A4235D9023E2B449B1ABFB23F
:1011B800B3FBFEF00EFB103347EA03430CFB00F1D0
:1011C800994207D95B1900F1FF3221D299421FD900
:1011D80002382B445A1A40EA0646674650E710463A
:1011E80016E70B4629E7134672E7B0409042B7D29C
:1011F800601E002624E7304622E7A94295D9A8F1C7
:1012080002081D4492E78C45A0D9023C19449EE788
:101218001046DFE70E46C9E70238294443E700BF16
:1012280007B5F8B9684600F067FB08B10F4804E055
:1012380001A800F061FB18B10D4804F067FE11E049
:101248000099CB1E072B03D90A4804F00FFE09E0CA
:10125800094A01990093D05C11B104F035F901E015
:1012680004F040F903B05DF804FB00BF88A700084C
:101278009AA70008C3A7000856A9000807B558B9D7
:10128800684604F0B5FA0648BDF90010BDF9022019
:10129800BDF9043004F0EAFD03B05DF804FB00BFBB
:1012A800F0A700081FB5F8B901A804F0CBFA9FED24
:1012B800106ADDED016A9DED027ADDED037A0D48D5
:1012C80066EE866A27EE067A67EE867AFDEEE66AAD
:1012D800BDEEC77AFDEEE77A16EE901A17EE102AE1
:1012E80017EE903A04F0C2FD05B05DF804FB00BFAC
:1012F8000000804323A8000808B558B904F048F94D
:10130800054B0649002818BF19460548BDE808409E
:1013180004F0ACBD08BD00BF52A800085AA80008D8
:1013280063A8000808B5032004F0CEF8FEE7000023
:1013380010B590B0012306930793002308934FF448
:10134800803302240E9306A84FF4E0130D940F93F4
:1013580000F060FF10BB0F23019303904FF48063EC
:101368000590214601A80294049301F03DFA044631
:10137800A0B901F005FC00F0F7FB0E4B185D013435
:1013880004F06EF8082CF8D10020014604F0C6F8E5
:1013980004F016FA20B1084804F0B8FDFFF7C2FFC0
:1013A80004F02EFA08B10548F6E700F00FFA00F04D
:1013B80029F8FAE756A900087CA800089EA80008A2
:1013C80001F0F0BB012808B50FD0022804D1074866
:1013D800BDE8084004F09ABD4D20FEF723FFBDE8A4
:1013E80008400146024804F041BD08BD5EA9000856
:1013F80097A9000810B9024800F07EBA704700BFEC
:10140800B80A002010B5054C216829B1044804F039
:101418002DFD2368013B236010BD00BFB80A0020E2
:10142800BBA90008FEE7000000230749002258185E
:101438005A503833B3F50C7F4260F6D1034B0B603A
:10144800034B4A601A607047FC0E00202D140008F8
:101458002C110020092810B503D90A4804F056FDBC
:1014680008E03823084A4343D418D15829B9074813
:1014780004F0FCFC4FF0FF3010BD0021D15061603A
:1014880010BD00BFF3A90008FC0E002000AA000848
:101498002DE9F041154D164E07468846002428468A
:1014A80000212C2204F094FC124B6B62F36055F877
:1014B8000C3CAE62EE616BB9382363430E49CA181F
:1014C800CF500E4BC2F8048003EB84239360204670
:1014D800BDE8F08101340A2C05F1380506F580666F
:1014E800DDD14FF0FF30BDE8F08100BF080F0020CC
:1014F8002015002089150008FC0E0020301100205E
:1015080038B51B4804F002FD1A4A13680021154635
:101518000133092293FBF2F202EBC2029B1A013358
:101528003822154C5A430131A25812B90B29EFD170
:1015380003E00B2901D0002B03DA104804F0E6FC85
:1015480000232868834210D038210A4A01FB004052
:1015580001FB03410C300C311360A0E8F05FC0F8C8
:1015680000D0B1E8F05FD1F800D0002038BD00BF4E
:101578000FAA00082C110020FC0E002024AA000845
:10158800064C074A216838234B43D118D35848687A
:1015980098472068FFF75EFFFFF7B2BF2C110020C5
:1015A800FC0E002008B5054804F0B0FCFFF7A8FFC2
:1015B8000348BDE8084004F0A9BC00BF45AA0008DC
:1015C80053AA000808B5054804F0A0FCFFF798FFE7
:1015D8000348BDE8084004F099BC00BF5FAA0008B2
:1015E8006DAA000808B5054804F090FCFFF788FFCD
:1015F8000348BDE8084004F089BC00BF79AA000888
:1016080087AA000808B5054804F080FCFFF778FFB2
:101618000348BDE8084004F079BC00BF93AA00085D
:10162800A1AA000808B5034804F070FCBDE808400A
:10163800FFF766BFADAA000808B5034804F066FCCA
:10164800BDE80840FFF7F0BEC3AA000808B50A487D
:1016580004F05CFC00210948FFF71AFF0021084844
:10166800FFF716FF00210748FFF712FF0648002181
:10167800BDE80840FFF70CBFDEAA0008AD1500085A
:10168800CD150008ED1500080D16000807B540B97E
:10169800684600F031F901A800F02EF9009B019A84
:1016A8001A6003B05DF804FB07B538B901A800F06B
:1016B80023F9019903480A6804F0D8FB03B05DF8E0
:1016C80004FB00BF44AB00082DE9F041154608B9FA
:1016D800334820E009B933481DE022B1324B4C1E93
:1016E8001E6803460AE0314815E013F8012B002A6A
:1016F8004DD03244013C527812074BD5671C18462E
:101708002146F2D11B78002B47D0294904F030FD3F
:10171800064610B92748284937E0284904F07AFCDA
:101728000446A0B9224904F023FD064690B90C35B9
:1017380055F80C1C89B355F8042C1AB1204804F04C
:1017480095FBF4E755F8083C01209847EFE74FF080
:10175800000809E04FF0020806E03046394604F078
:1017680059FC044620B10C352F68002FF5D10AE04A
:10177800B8F1000F03D01348394604F077FB6B68C3
:101788004046984709E01048314604F06FFB4FF097
:10179800FF3402E00029B8D1F9E72046BDE8F0811E
:1017A80095AB0008B6AB0008FC010020C6AB0008EA
:1017B800E9AB0008F0AB00088FAB000820AC0008CC
:1017C80025AC000831AC000836AC000873B53F4DB5
:1017D8002B6823B13E4804F049FB00232B600DF130
:1017E800070000F032FA00286ED19DF80730082B68
:1017F80001D07F2B0DD1374C226852B1364804F006
:1018080035FB364A1368013B13602368013B2360AC
:101818005AE0212B15D1324B1B68002B54D0314C88
:101828003149204604F018FC2146304804F01EFBDC
:10183800204604F06FFC274B1860284B04441C60BA
:1018480025E02B4A12681A44527812F0970212D0F7
:1018580020490A684F2A9FBF204C20680370451C06
:1018680097BF013207209DF80700256098BF0A60DE
:1018780004F010FB28E00D2B26D1184B1A481B68E2
:1018880018491A7004F0E8FB154B01221A600A2067
:10189800124C04F0FFFA0F4B20681E680246311AFA
:1018A80011444F294FF0000102D802F8011BF6E756
:1018B80019600C4E0F4B226030461A685021FFF712
:1018C80003FF012326602B6002B070BD08000020D2
:1018D8006BAC0008BC0A002072AC000804000020B1
:1018E800C00A0020803900203039002076AC00087A
:1018F800FC0100200C00002010B508490446002017
:1019080004F036FC30B100210A4604F0FFFC2060E8
:10191800002010BD4FF0FF3010BD00BFE9AB00083C
:1019280010B506490446002004F022FC10B12060DE
:10193800002010BD4FF0FF3010BD00BFE9AB00081C
:101948002DE9F04F804689B092460D46002944D0D3
:1019580003AC00EB010906462746C8EB0A014E45D1
:101968003144C8EB060325D013F00F0B03D11C48F4
:1019780004F07CFA3C461B4B16F8011B1B681A48FE
:101988000B445B7813F0970F08BF2E2204F1010374
:1019980014BF2170227001931C4604F067FABBF152
:1019A8000F0F019BD9D100221A7039460F4804F055
:1019B8005DFAD2E7002315F00F0523700DD01C4601
:1019C800C5F110039C4204D2094804F04FFA0134CF
:1019D800F6E70648394604F049FA09B0BDE8F08F41
:1019E80079AC0008FC0100207FAC000885AC000839
:1019F8008BAC0008012838B51DD002280E4C0F4DBD
:101A080009D10F4804F082FA21682A680D48BDE818
:101A1800384004F02BBA2046FFF76EFF10B928466D
:101A2800FFF76AFF206829680246FFF789FF2368E5
:101A38002A681344236038BDC40A0020100000201F
:101A48008FAC000827AE000808B50A4B1A680AB917
:101A5800094A1A6018686B460144994206D904F08D
:101A680073F90C2303604FF0FF3008BD014B196078
:101A780008BD00BFC80A00201C4700204FF0FF30F7
:101A880070474FF40053536000207047012070479F
:101A9800002070471C4B70B51B68044698471B4BC9
:101AA8009C4206462DD11A4BB3F80811B3F80C2105
:101AB80092B212FA81F101F07F01A3F80811B3F88C
:101AC8000A118A1A92B2A3F80A210022A3F80C215B
:101AD800B3F80811B3F80A2192B289B21C4682B150
:101AE8008B187F2B88BFC1F1800295B221448631C3
:101AF8002A46064803F011FA044803F01CFAA4F831
:101B08000C51304670BD00BFF43B0020D039002096
:101B1800CC0A00202DE9F043044685B0E8B972B636
:101B28000F482146D0F81061D0F81451D0F8189118
:101B3800D0F81C81D0F82071142200F5887004F0C8
:101B480047F962B60748CDF80090CDF804800297AF
:101B5800214632462B4604F089F905B0BDE8F083EA
:101B6800CC0A002075AE000810B5174C2368002178
:101B7800586802220B4604F0D1F9236800219868BE
:101B880002220B4604F0CAF92368104CD8680021D9
:101B98000B46022204F0C2F920460D49002202F049
:101BA800D9FD0C490C4B4A691A6020460B4B4B6116
:101BB80002F0E5FD20460A4903F0A8F92046BDE8F1
:101BC800104002F0E3BD00BF28060020D0390020F5
:101BD800280100205C000020F43B00209D1A00082A
:101BE80068010020F0B572B60A440E460F4F4FF454
:101BF800927545437C198034A3889BB2C1EB060ECD
:101C080083B196420ED063889BB21D4401337D5D3B
:101C180006F8015B03F07F036380A388013B9BB256
:101C2800A380E3E762B67046F0BD00BFCC0A00208F
:101C3800114600201A46FFF7D5BF08B50122FFF765
:101C4800D1FFB0FA80F0400908BD014608B5002070
:101C5800FFF7F3FF003018BF012008BDF8B5374E75
:101C68004FF492737F2A03FB006306D9D3F810213F
:101C78000132C3F810210120F8BDB3F80A4112FA65
:101C880084F47F2C82BFD3F814410134C3F8144183
:101C98004FF4927303FB0063B3F80A4112FA84F419
:101CA8007F2CF5D872B6D3F818411444C3F81841FC
:101CB8000A4491421CD04FF4927303FB006303F56E
:101CC80084756C88A4B27F2C12D8B3F8064111F839
:101CD80001EBA4B203F580772344013404F07F04B8
:101CE800FC8083F886E06B8801339BB26B80E0E769
:101CF8004FF4927303FB0063B3F8082195B2B3F86D
:101D08000A2192B253197F2B88BFC5F1800290B97E
:101D18000B4F97F8FC31032B0DD194B2711938464B
:101D28008631224603F0F9F8384603F004F910B971
:101D3800024BA3F80C4162B60020F8BDCC0A002083
:101D4800D0390020F8B51D461446D718BC4226469F
:101D58000FD033780A2B04F1010404D1002006497E
:101D68000122FFF77BFF314601220020FFF776FFB3
:101D7800ECE72846F8BD00BFEEAB0008F0B51A4DF9
:101D88004FF4927303FB0053B3F8844012FA84F4BF
:101D98007F2C06D9D3F81C210132C3F81C2101205D
:101DA800F0BDD3F820411444C3F820410A449142BD
:101DB80017D04FF4927444432F1911F801EBB7F878
:101DC80080309BB21C44013303F07F03A7F88030B6
:101DD800B7F8843005F804E001339BB2A7F88430E3
:101DE800E5E70020F0BD00BFCC0A0020014801F063
:101DF8004CBC00BFF83B002010B50B460446B0B100
:101E0800B1B1888889796268102905D0202905D060
:101E1800082905D1805C10BD805A10BD805810BDBE
:101E28001A680448236804F021F8002010BD10BD8A
:101E3800084610BD1FAF000838B50B460446A8B1C8
:101E4800A1B18D8889794068102905D0202905D04D
:101E5800082906D12A5402E02A5200E02A5000201C
:101E680038BD1A680248236804F000F8012038BD1C
:101E78001FAF000830B585B098B1447905790A4B91
:101E88000122A240E940013A0A400168074800944B
:101E9800012C98BF0346019302950548134603F0A9
:101EA800E5FF05B030BD00BF53AF000859AF0008CB
:101EB8005FAF000873B516461D460446D8B183794E
:101EC800009383880D48194401912168134603F053
:101ED800CDFFA46844B175B1236833B120463146BB
:101EE800FFF7C8FF0834F7E72DB10A2002B0BDE8B4
:101EF800704003F0CFBF02B070BD00BF88AF0008CC
:101F080070B50E460546A8B10B4895E8060003F0E3
:101F1800ADFFAC6804B970BD23685BB121462846A3
:101F2800FFF76AFF6968024633462046FFF7C2FF9B
:101F38000C34F1E770BD00BFC3AF000838B50546E3
:101F4800092003F0A7FF0824296889B1094803F08C
:101F58008DFFEB6804444BB1074803F087FF044446
:101F6800462C03D9054803F081FF08240C35EBE71C
:101F780038BD00BF76AC00085CAF0008EBAF0008C6
:101F880038B50546092003F085FF0824296899B16A
:101F98000A4803F06BFFEB682044C4B253B1084809
:101FA80003F064FF2044C4B2462C03D9054803F06B
:101FB8005DFF08240C35E9E738BD00BF76AC0008A2
:101FC8005CAF0008EBAF00082DE9F041022886B0AD
:101FD80018D105A8FFF7A4FC10B9059E654C0DE0C3
:101FE800654803F093FF6348FFF7A8FF634836E0AE
:101FF8003046294604F00EF808B30C342568002D45
:10200800F6D114E002A8FFF78BFC10B9029E594CD8
:1020180009E05B4803F07AFF1DE0304603F0FAFF61
:102028000546F8B10C3421680029F6D10FE0314695
:10203800544803F01BFF4F48FFF780FF97E05248D2
:10204800294603F013FFA068FFF79AFF06E04F4800
:10205800314603F00BFF4748FFF770FF4C4803F089
:1020680055FF84E003A8FFF75BFC10B12046294622
:102078000FE0A568039E2968304621B103F0CAFF26
:1020880050B10C35F7E7434903F0C4FF08BB2046BD
:102098000121FFF735FF6AE004A8FFF741FC60B9AA
:1020A800AE68DDF810803768002F43D040463946C7
:1020B80003F0B0FF98B10836F5E729462046FFF748
:1020C8009BFE61680590024601232846FFF7F2FE51
:1020D8004DE031462268304803F0C8FEB3E705A852
:1020E800FFF70AFC10B12D48296832E0294620463E
:1020F800FFF782FE727996F804E005990123934070
:1021080020FA0EF7013B03FA0EF21F400B4003FAC8
:102118000EF320EA020229461A432046FFF78CFEF6
:10212800059B0097019321682A6833681C4803F0CF
:102138009DFE1CE003F008FE394607603A46049805
:1021480004F0E4F8059003F0FFFD036823B1154897
:10215800049903F08BFE0AE02946059A2046FFF70A
:102168006BFE114821682A68059B03F07FFE06B0C4
:10217800BDE8F08148530108EEAF0008DDB1000862
:1021880032B200080EB3000849B300086EB3000865
:10219800A8B30008AAB3000861B200089EB20008FC
:1021A800C9B20008E0B20008FEB200081549D1F82B
:1021B800883043F47003C1F88830134B1A6842F032
:1021C80001021A605868114A02405A601A6822F0DF
:1021D800847222F480321A601A6822F480221A600B
:1021E8005A6822F4FE025A60DA6A22F00F02DA62B2
:1021F800186B074A02401A6300229A604FF0006386
:102208008B60704700ED00E0001002400CC07FF8C2
:10221800CCFC00FFF8B50368DB07044604D4236848
:102228009F0700F1C68057E1C14D6B6803F00C03AE
:10223800042B07D06B6803F00C03082B27D16B68BD
:10224800DE0324D54FF4003292FAA2F3B3FA83F3F3
:1022580043F02003C3F34213012B01D1296804E0A2
:1022680092FAA2F2B2FA82F2696A4FF4003393FA50
:10227800A3F3B3FA83F3012203F01F0302FA03F373
:102288000B42CCD063689342C9D00120F8BDA94E57
:102298000023337000F08EFC07464FF4003292FAA8
:1022A800A2F3B3FA83F343F02003C3F34213012BE1
:1022B80001D1296804E092FAA2F2B2FA82F2696ABC
:1022C8004FF4003393FAA3F3B3FA83F3012203F034
:1022D8001F0302FA03F30B4208D000F06BFC41F233
:1022E8008833C01B9842D8D90320F8BD23793370AE
:1022F800EB6A23F00F02A3681343EB626368012BB8
:102308002BD100F057FC06464FF4003292FAA2F3A4
:10231800B3FA83F343F02003C3F34213012B01D133
:10232800296804E092FAA2F2B2FA82F2696A4FF4DA
:10233800003393FAA3F3B3FA83F3012203F01F03E4
:1023480002FA03F30B427FF46AAF00F033FC41F268
:102358008833801B9842D7D9C6E700F02BFC064685
:102368004FF4003292FAA2F3B3FA83F343F0200356
:10237800C3F34213012B01D1296804E092FAA2F2B7
:10238800B2FA82F2696A4FF4003393FAA3F3B3FA0C
:1023980083F3012203F01F0302FA03F30B423FF415
:1023A8003EAF00F007FC41F28833801B9842D7D932
:1023B8009AE75F4D6B6813F00C0F07D06B6803F05A
:1023C8000C03082B25D16B68D80322D4022292FA79
:1023D800A2F3B3FA83F343F02003C3F34213012BB0
:1023E80001D1296804E092FAA2F2B2FA82F2696A8B
:1023F800022393FAA3F3B3FA83F3012203F01F0332
:1024080002FA03F30B4230D0236993427FF43DAFC5
:102418002BE02269484BBAB301221A6000F0CAFBCC
:102428000646022292FAA2F3B3FA83F343F020039A
:10243800C3F34213012B01D1296804E092FAA2F2F6
:10244800B2FA82F2696A022393FAA3F3B3FA83F326
:10245800012203F01F0302FA03F30B4205D100F037
:10246800A9FB801B6428DCD93EE72A68F82393FA85
:10247800A3F3B3FA83F36169DBB2994022F0F8025F
:1024880041EA02032B6027E01A6000F093FB06463E
:10249800022292FAA2F3B3FA83F343F02003C3F3C0
:1024A8004213012B01D1296804E092FAA2F2B2FA90
:1024B80082F2696A022393FAA3F3B3FA83F301223F
:1024C80003F01F0302FA03F30B4205D000F072FB7E
:1024D800801B6428DCD907E72368190704D423681C
:1024E8005A0740F1A7804AE0A269114D134B3AB34D
:1024F80001221A6000F05EFB0646022393FAA3F25B
:10250800B2FA82F293FAA3F2B2FA82F2696A93FA01
:10251800A3F3B3FA83F3012203F01F0302FA03F3D0
:102528000B42DCD100F046FB801B6428E5D9DBE6D2
:102538000010024002100240000042428004424261
:102548001A6000F037FB0646022393FAA3F2B2FAA8
:1025580082F293FAA3F2B2FA82F2696A93FAA3F3C7
:10256800B3FA83F3012203F01F0302FA03F30B42C9
:10257800B5D000F01FFB801B6428E5D9B4E6974D61
:10258800974AEB6943F08053EB61136843F4807317
:10259800136000F00FFB0646914B1B68DB054DD519
:1025A8002B6A23F005032B6200F004FB0646022386
:1025B80093FAA3F2B2FA82F293FAA3F2B2FA82F28F
:1025C80042F04002C2F342129A420CBF296A696A79
:1025D80093FAA3F3B3FA83F3012203F01F0302FA79
:1025E80003F30B4230D12B6AE26823F0050313434F
:1025F800012A2B6238D100F0DDFA0646022393FA4D
:10260800A3F2B2FA82F293FAA3F2B2FA82F242F099
:102618004002C2F342129A420CBF296A696A93FACD
:10262800A3F3B3FA83F3012203F01F0302FA03F3BF
:102638000B4211D0E269002A3DD18BE000F0BAFAD2
:10264800801B6428A8D94FE600F0B4FA41F2883319
:10265800801B9842ABD947E600F0ACFA41F28833C8
:10266800801B9842CAD93FE600F0A4FA0646022326
:1026780093FAA3F2B2FA82F293FAA3F2B2FA82F2CE
:1026880042F04002C2F342129A420CBF296A696AB8
:1026980093FAA3F3B3FA83F3012203F01F0302FAB8
:1026A80003F30B42C6D000F085FA41F28833801B51
:1026B8009842DCD918E6494D6B6803F00C03082BE7
:1026C8003FF4E3AD474E0023022A33605CD100F0AB
:1026D80071FA07464FF0007292FAA2F3B3FA83F345
:1026E80043F02003C3F34213012B35D12A684FF07E
:1026F800007393FAA3F3B3FA83F3012103F01F03E2
:1027080001FA03F313422DD1206A626A6B6802430F
:1027180023F4741313436B60316000F04BFA0446E2
:102728004FF0007292FAA2F3B3FA83F343F0200356
:10273800C3F34213012B1BD129684FF0007393FA9E
:10274800A3F3B3FA83F3012203F01F0302FA03F39E
:102758000B4213D00020F8BD92FAA2F2B2FA82F22C
:102768006A6AC4E700F026FAC01B6428B2D9BBE540
:1027780092FAA2F2B2FA82F2696ADEE700F01AFA75
:10278800001B6428CCD9AFE500F014FA04464FF0DA
:10279800007292FAA2F3B3FA83F343F02003C3F36F
:1027A8004213012B01D1296804E092FAA2F2B2FA8D
:1027B80082F2696A4FF0007393FAA3F3B3FA83F3D2
:1027C800012203F01F0302FA03F30B42C2D000F008
:1027D800F1F9001B6428DAD986E500BF0010024031
:1027E8000070004060004242B04AF8B5136803F038
:1027F8000703994204460E4640F2A980136823F065
:1028080007030B431360136803F007038B4201D0DF
:102818000120F8BD01688F0741BFA548436823F030
:10282800F002A36844BF13434360CE070BD421686A
:102838004D0740F12B819E48436823F4E062E3682A
:102848001343436022E16268994D012A15D14FF480
:10285800003191FAA1F3B3FA83F343F02003C3F3F1
:102868004213012B01D1286804E091FAA1F1B1FAD1
:1028780081F1686A4FF400332AE0022A15D14FF03B
:10288800007191FAA1F3B3FA83F343F02003C3F381
:102898004213012B01D1286804E091FAA1F1B1FAA1
:1028A80081F1686A4FF0007312E0022191FAA1F3F6
:1028B800B3FA83F343F02003C3F34213012B01D18E
:1028C800286804E091FAA1F1B1FA81F1686A02235B
:1028D80093FAA3F3B3FA83F3012103F01F0301FA78
:1028E80003F3034294D06B6823F003031A436A602E
:1028F80000F060F96368012B06460DD16B6803F0A0
:102908000C03042B93D000F055F941F28833801B57
:102918009842F3D90320F8BD022B13D16B6803F05A
:102928000C03082B83D000F045F941F28833801B53
:102938009842F3D9EEE700F03DF941F28833801B65
:102948009842E7D86B6813F00C0FF4D16FE7016871
:10295800880741BF5648436823F0F002A36844BF84
:1029680013434360CA070CD4504A136823F0070383
:1029780033431360136803F00703B3427FF448AF8F
:1029880055E762684A4D012A15D14FF4003191FA92
:10299800A1F3B3FA83F343F02003C3F34213012BEB
:1029A80001D1286804E091FAA1F1B1FA81F1686ACD
:1029B8004FF400332AE0022A15D14FF0007191FA42
:1029C800A1F3B3FA83F343F02003C3F34213012BBB
:1029D80001D1286804E091FAA1F1B1FA81F1686A9D
:1029E8004FF0007312E0022191FAA1F3B3FA83F3D6
:1029F80043F02003C3F34213012B01D1286804E0FC
:102A080091FAA1F1B1FA81F1686A022393FAA3F36A
:102A1800B3FA83F3012103F01F0301FA03F303421E
:102A28003FF4F6AE6B6823F003031A436A6000F0C4
:102A3800C1F86368012B07460CD16B6803F00C03DF
:102A4800042B91D000F0B6F841F28833C01B9842AD
:102A5800F3D95FE7022B14D16B6803F00C03082B42
:102A680082D000F0A7F841F28833C01B9842F3D90E
:102A780050E700F09FF841F28833C01B98423FF6B8
:102A880049AF6B6813F00C0FF3D16DE70B0741BF2B
:102A9800074A2169536823F4605344BF43EAC103DA
:102AA80053600F2000F059F80020F8BD00200240C4
:102AB80000100240154910B54C6804F00C03082BAF
:102AC80021D14FF4701393FAA3F3B3FA83F304F408
:102AD8007012DBB222FA03F30D4AC96AD25C0F23E3
:102AE80093FAA3F3B3FA83F301F00F01DBB221FAEF
:102AF80003F30849C85CE30352BF0748074BB3FB1D
:102B0800F0F0504310BD054810BD00BF0010024052
:102B180048AE010838AE010800093D0000127A00ED
:102B280008B5FFF7C7FF094B5A68F02393FAA3F3D8
:102B3800B3FA83F302F0F002DBB222FA03F3044A99
:102B4800D35CD840034B186008BD00BF001002409A
:102B580028AE010814000020704710B50446FFF79E
:102B6800DFFF4FF47A73B0FBF3F000F085F84FF015
:102B7800FF302146002200F043F8002010BD00007D
:102B8800074A08B5136843F010031360032000F0E8
:102B980025F80F20FFF7E1FFFFF7DEFF002008BD53
:102BA80000200240024A136801331360704700BFD7
:102BB800F00B0020014B1868704700BFF00B002095
:102BC80013B50190FFF7F6FF0446FFF7F3FF019BEB
:102BD800001B9842F9D302B010BD0000074AD36821
:102BE80023F4E0631B041B0C43F0BF6343F400337E
:102BF80000F0070043EA0023D360704700ED00E0CF
:102C0800154BDB68C3F3022370B5C3F107051C1D20
:102C1800042D28BF0425062C8CBF033B0023012468
:102C280004FA03F6AC40013C013E21409940324091
:102C3800002842EA01024FEA0212AFBF00F16040E9
:102C480000F00F00054BD2B2A5BF00F56140D2B22B
:102C58001A5480F8002370BD00ED00E014ED00E088
:102C68004109012300F01F00024A834042F8213045
:102C7800704700BF00E100E00138B0F1807F3FBF3E
:102C8800064B074A5860F0213FBF82F82310002006
:102C98000722986034BF1A600120704710E000E0F6
:102CA80000ED00E02DE9F0410F68002301229A4071
:102CB80002EA0705954240F0AC804C6824F0100CFD
:102CC800BCF1020F14D14FEAD30E00EB8E0E03F0C5
:102CD8000706DEF82020B6004FF00F0808FA06F8BD
:102CE80022EA08080A69B24048EA0202CEF820201F
:102CF8004FEA430E0322066802FA0EF2D24302EAB2
:102D0800060804F0030606FA0EF60CF1FF3C48EA42
:102D18000606BCF1010F066011D8866802EA060CA7
:102D2800CE6806FA0EF64CEA06068660466826EA7B
:102D3800050CC4F300169E404CEA06064660C668B9
:102D480002EA060C8A6802FA0EF64CEA0602C2602B
:102D5800E2005ED5324EB26942F00102B26123F060
:102D6800030606F1804606F5803603F0030CD6F814
:102D780008E04FEA8C0C0F2202FA0CF2B0F1904FE7
:102D88002EEA020E15D0274A904214D002F580622E
:102D9800904212D002F58062904210D002F5806213
:102DA80090420ED002F5806290420CBF05220622A6
:102DB80008E0002206E0012204E0022202E00322E9
:102DC80000E0042202FA0CF242EA0E02B260164A4D
:102DD80016686FEA050E14F4803F14BF2E430EEAFE
:102DE80006061660566814F4003F14BF2E430EEA18
:102DF80006065660966814F4801F14BF2E430EEA28
:102E080006069660D668A40254BF0EEA0605354346
:102E1800D5600133102B7FF449AFBDE8F08100BFC6
:102E280000100240000400480004014003691942F0
:102E380014BF0120002070470AB101837047418305
:102E48007047436959404161704738B504460028C6
:102E580046D0022380F8413102F098F8656804F101
:102E680029020021A94202F11C024FF000030ED0F2
:102E7800012002F81D1C02F81C0C02F81A3C42F84A
:102E8800113C42F80D3C42F8093C0144EAE704F1E0
:102E9800B502AB4202F11C024FF000000DD002F85F
:102EA8001D3C02F81C0C02F81A0C42F8110C42F8EE
:102EB8000D0C42F8090C0133EBE723680122A3F853
:102EC80040204FF43D42A3F84000A3F84400A3F883
:102ED8005000A3F8402084F8240084F8410138BD4C
:102EE800012038BD08B5012100F019FF002008BDF8
:102EF80090F84031012B0FD0012380F8403121B9DF
:102F080003688022A3F84C2001E080F824100023F5
:102F180080F840311846704702207047F0B5CCB2AF
:102F280014F0800F01F07F064FF01C0515BF05FB5C
:102F3800060105FB01012831B431E4090E704C701B
:102F4800CB7090F84031CA60012B00F081810123D9
:102F580080F84031CC780A780368032C2FD8DFE852
:102F680004F002220D1712B233F82240A4B224F45E
:102F7800EC4424F0700444F400741EE012B233F8F8
:102F8800224024F4EC4424F070042404240C14E0BB
:102F980012B233F82240A4B224F4EC4424F07004B2
:102FA80044F4C06409E012B233F82240A4B224F415
:102FB800EC4424F0700444F4806423F822400A7836
:102FC80016B242F4004533F8264024F0F002120508
:102FD80045F08005120D2A4323F826208C7A0A78BA
:102FE800002C75D14D788C8808263DB3B3F8505025
:102FF800ADB216FB025203EB420264086400C2F849
:1030080000440C7833F8242052060BD533F82420DA
:1030180022F0F0021205120D42F4004242F0C00202
:1030280023F82420097833F8212022F4E04222F002
:1030380040021204120C82F02002FEE0B3F8507035
:10304800BFB216FB0272043203F58065640864009F
:1030580045F81240B3F850200C7892B216FB0422BF
:10306800CE683E2E02F106020BD9C6F34F14F706BE
:1030780004BF04F1FF34A4B26FEAC4646FEA544495
:1030880006E0C6F34F04F60744BF0134A4B2A40215
:10309800A4B245F812400C7833F8242052040BD51A
:1030A80033F8242022F0F0021205120D42F44042B7
:1030B80042F0800223F82420097833F8212022F4F2
:1030C800804222F070021204120C82F44052B4E0E2
:1030D80012B203F5806533F8224024F4F87424050D
:1030E800240D44F4014444F0800423F82240B3F84A
:1030F80050600C780822B6B212FB0466CC886408CB
:10310800640045F81640B3F850400E78A4B212FB9C
:1031180006420C8904326408640045F812400C78B1
:103128004A7824B2002A46D133F8242057040BD514
:1031380033F8242022F0F0021205120D42F4404226
:1031480042F0800223F824200C7833F82420560615
:103158000BD533F8242022F0F0021205120D42F4A8
:10316800004242F0C00223F824200C7833F82420CF
:1031780022F0F0021205120D42F4004242F0C002A1
:1031880023F824200C7833F8242022F4804222F0FB
:1031980070021204120C82F4405242F4004242F0CF
:1031A800800223F82420097833F8212022F0C00275
:1031B8001205120D41E033F8242055040BD533F8DD
:1031C800242022F0F0021205120D42F4404242F08F
:1031D800800223F824200C7833F8242052060BD5DB
:1031E80033F8242022F0F0021205120D42F40042B6
:1031F80042F0C00223F824200C7833F8242022F06F
:10320800F0021205120D42F4404242F0800223F807
:1032180024200C7833F8242022F0C0021205120D65
:1032280042F4004242F0800223F82420097833F85F
:10323800212022F0F0029204920C42F4004242F063
:10324800800223F82120002380F840311846F0BD81
:103258000220F0BDCBB213F0800F30B54FF01C0246
:1032680001F07F0415BF02FB040102FB01012831B4
:10327800B431DB090C704B7090F84031012B00F031
:10328800BF80012380F840310A788D7A4C78036832
:1032980012B21DBB84B133F8224064065BD533F803
:1032A800224024F0F0042405240D44F4004444F0A2
:1032B800C00423F822404EE033F82240650440F170
:1032C8008D8033F8224024F0F0042405240D44F4C2
:1032D800404444F0800423F822407FE0002C42D18F
:1032E80033F8224064040BD533F8224024F0F0046C
:1032F8002405240D44F4404444F0800423F822407B
:103308000C7833F8242055060BD533F8242022F006
:10331800F0021205120D42F4004242F0C00223F8F6
:1033280024200C7833F8242022F0F0021205120D24
:1033380042F4004242F0C00223F824200C7833F80B
:10334800242022F0F0029204920C42F4004242F04F
:10335800800223F82420097833F8212022F0C002C3
:103368001205120D41E033F8224064040BD533F8FE
:10337800224024F0F0042405240D44F4404444F091
:10338800800423F822400C7833F8242052060BD509
:1033980033F8242022F0F0021205120D42F4004204
:1033A80042F0C00223F824200C7833F8242022F0BD
:1033B800F0021205120D42F4404242F0800223F856
:1033C80024200C7833F8242022F0C0021205120DB4
:1033D80042F4004242F0800223F82420097833F8AE
:1033E800212022F0F0029204920C42F4004242F0B2
:1033F800800223F82120002380F84031184630BD90
:10340800022030BD70B501F07F011C2404FB0104CB
:1034180004F1C0056A600022AB60C4F8CC2084F8CF
:10342800B52084F8B41090F84031012B62D0012304
:1034380080F84031AB68D4F8C040A34298BFAA6076
:103448004FF01C0202FB010284BF1B1BAB6092F809
:10345800BE5088BF2346B03204680DB1557915BBFC
:10346800B4F850501279ADB205EBC2053E2B04F505
:10347800806605F106050BD9C3F34F12DB0604BFBE
:1034880002F1FF3292B26FEAC2626FEA524206E07C
:10349800C3F34F02DB0744BF013292B2920292B2E9
:1034A80046F815200CE0012D01BFB4F850501279F0
:1034B800ADB205EBC20204BF04EB4202C2F80C3401
:1034C8001C2303FB010191F8B42034F8223023F4C3
:1034D800804323F070031B041B0C83F4405343F414
:1034E800004343F0800324F82230002380F8403161
:1034F800184670BD022070BD01F07F011C2303FB3C
:103508000100B0F8CC007047F8B501F07F061C2127
:1035180001FB0601044601F138008A63436000227A
:1035280001230A6481F8293081F8286094F8405111
:103538009D4200F0A88084F840314B6B45681C27F9
:1035480007FB06479D4288BFED1A97F8321086BFE1
:1035580045601D464260ABB207F1280289B9B96BD4
:103568009288206800F0B3FB216897F82830B1F8FA
:10357800502092B202EBC30301EB4303C3F8045497
:1035880067E0527820681ABBB0F8501097F82820E6
:1035980089B201EBC2013E2D00F5806701F10601F9
:1035A8000BD9C5F34F12ED0604BF02F1FF3292B2F8
:1035B8006FEAC2626FEA524206E0C5F34F02ED07B6
:1035C80044BF013292B2920292B247F811200DE044
:1035D800012A01BFB0F8502097F8281092B202EBE8
:1035E800C10204BF00EB4202C2F80C541C2505FBC3
:1035F800064202F1280192F8287030F8277005FB7E
:1036080006457F0654BFCA88128EA96B00F05FFB7F
:1036180095F82930226863B995F8281032F82130D6
:1036280023F0F0031B051B0D43F4004343F0C003D4
:103638000DE0012B0DD195F8281032F8213023F038
:10364800F0031B051B0D43F4404343F0800322F8AD
:1036580021301C2303FB0646226896F8281032F80E
:10366800213023F4E04323F040031B041B0C83F0B8
:10367800300343F4004343F08003002022F8213054
:1036880084F84001F8BD0220F8BD0368B3F844305F
:103698001BB2002BF7B5044611DB2368B3F84420AE
:1036A800520540F1E7814FF6FF322046A3F8442047
:1036B80001F0D6FC20460021FFF71AFCDAE10023CE
:1036C800ADF806302068B0F844309BB21904ADF864
:1036D8000430E2D5BDF8045015F00F0540F0B7806E
:1036E800BDF80410038801F0100189B259BB23F416
:1036F800E14323F070031B041B0C0380B0F8503027
:1037080094F828209BB203EBC20300EB4300A26BA2
:10371800D0F80434C3F3090323641344A363204695
:1037280001F092FC94F82430002BCBD0E26B002AF5
:10373800C8D194F82430216843F08003A1F84C30B4
:1037480084F82420BEE79BB2ADF80630BDF80630F9
:103758001F051FD5B0F8503094F8B4209BB203EB86
:10376800C20300EB4303B4F8B820D3F80C34C3F316
:103778000903C4F8CC3004F5A27100F0BFFA22683E
:10378800138823F070031B051B0D1380204601F0DE
:103798004BFC97E7BDF806301BB2002B92DA038882
:1037A80023F070031B051B0D0380B0F8503094F80C
:1037B800B4209BB203EBC20300EB4303D3F80C34F1
:1037C800C3F30903C4F8CC3063B1B4F8B820D4F813
:1037D800C41000F093FAD4F8C420D4F8CC301344C1
:1037E800C4F8C4302046002101F025FC2268D4F832
:1037F800C050B2F850103E2D89B202F5806001F138
:1038080006010BD9C5F34F13EE0604BF03F1FF33CE
:103818009BB26FEAC3636FEA534306E0C5F34F03F5
:10382800ED0744BF01339BB29B029BB240F81130B5
:10383800138823F4804323F070031B041B0C83F4C8
:10384800405343F4004343F0800313803AE72FB218
:1038580030F827309BB2ADF80630BDF806301BB201
:10386800002B80F2848030F8273023F070031B058A
:103878001C2202FB05421B0D20F8273002F1B80C70
:103888009CF8063002F1B00EB3B9B0F850309EF88B
:1038980004109BB203EBC10300EB4303D3F80C64A1
:1038A800C6F30906002E40D0D2F8C410BEF808208E
:1038B800334600F023FA38E09EF8046033B230F85B
:1038C8002330B0F8501013F4804F89B24FF008033A
:1038D80013FB061300EB430309D0D3F80464C6F3C3
:1038E800090686B1D2F8C410BEF80A2008E0D3F859
:1038F8000C64C6F3090636B1D2F8C410BCF804202B
:10390800334600F0FBF91C2303FB0543226893F8B8
:10391800B41032F8213023F0F0031B051B0D43F4DB
:10392800004343F0C00322F821301C2101FB05416C
:10393800D1F8CC30D1F8C4203344C1F8CC30D1F818
:10394800C8303244C1F8C4201BB1D1F8C000864247
:1039580008D21C2303FB0543204693F8B41001F05A
:103968006AFB04E0204691F8B410FFF74BFDBDF860
:10397800063018067FF5A6AE206830F8273023F405
:10398800E14323F070031B041B0C1C2202FB0542BD
:1039980020F8273092F8323002F12806A3B9B0F89F
:1039A800503092F828109BB203EBC10300EB43039D
:1039B800D3F80434C3F309031364002B3AD0916B92
:1039C800B28800F084F935E092F828703BB230F8FC
:1039D8002330B0F8501013F0400F89B24FF00803AD
:1039E80013FB071300EB430308D0D3F80434C3F3E5
:1039F8000903136463B1916BF28807E0D3F80C34C0
:103A0800C3F3090313641BB1916B128E00F05FF9C5
:103A18001C2303FB0543226893F8281032F8213051
:103A280023F0F0031B051B0D43F4404343F08003D0
:103A380022F8213021681C2303FB0545B1F85020EA
:103A480095F8283092B202EBC30301EB43032046FA
:103A5800D3F80424AB6B95F82810C2F309022A6442
:103A68001A44EB6BAA6313B901F0EEFA2AE6FFF7E2
:103A78004BFD27E62368B3F84420520444BF4BF6B5
:103A8800FF72A3F84420B3F84420970444BF4DF6CE
:103A9800FF72A3F84420B3F84420D60413D5B3F832
:103AA800402022F004021204120CA3F840204FF424
:103AB8003D42A3F84020204601F0E0FA23684EF684
:103AC800FF72A3F844202368B3F84420150518D5DD
:103AD8004FF2FF72A3F84420B3F8402092B242F0AC
:103AE8000802A3F84020B3F8402092B242F0040242
:103AF800A3F84020B3F84430D80402D4204601F09B
:103B0800BCFA2368B3F84420910506D54FF6FF5256
:103B1800A3F84420204601F09FFA2368B3F8442014
:103B2800D20544BF4FF6FF62A3F8442003B0F0BDAE
:103B380090F84031012B10B549D0CCB201231C229A
:103B480080F8403114F0800F01F07F0315BF02FBAD
:103B5800030202FB01022832B43201219170D9B26A
:103B6800E30911705370026879B913889BB223F482
:103B7800804323F0400383F4805383F0100343F41D
:103B8800004343F0800313801CE009B253B132F8BC
:103B9800213023F4E04323F040031B041B0C83F083
:103BA800100309E032F8213023F4804323F0700336
:103BB8001B041B0C83F4805343F4004343F080033D
:103BC80022F82130002380F84031184610BD022029
:103BD80010BDCBB213F0800F10B54FF01C0201F0EE
:103BE8007F0415BF02FB040102FB01012831B43137
:103BF800DB0900228A700C704B7090F84031012B61
:103C080049D0012380F840310C784B78026824B2FF
:103C1800DBB132F824305B060BD532F8243023F0C0
:103C2800F0031B051B0D43F4004343F0C00322F8C7
:103C38002430097832F8213023F4E04323F040039C
:103C48001B041B0C83F030031AE032F824305B04A9
:103C58000BD532F8243023F0F0031B051B0D43F479
:103C6800404343F0800322F82430097832F82130A9
:103C780023F4804323F070031B041B0C83F440538C
:103C880043F4004343F0800322F82130002380F8F6
:103C98004031184610BD022010BD11F0800F30B51C
:103CA8004FF01C051BBF01F07F0405FB040005FB5A
:103CB8000100283008BFB43012B98272838004E052
:103CC8000122C3801B0C82720381002030BD0133A6
:103CD80000F5806030B55B1000EB420200249C4286
:103CE80001F1020109D011F8015C11F8020C40EA57
:103CF800052022F824000134F1E730BD013300F536
:103D0800806010B55B1000EB420200249C4205D095
:103D180052F8240021F814000134F7E710BD704769
:103D280030B50468039D606820F07F7020F4593036
:103D380020F47F7020F0030028430343C1F30901F6
:103D48000B4343EA0242626030BD000070B504468E
:103D58000D46FEF72FFF23680646986910F01000FD
:103D680039D094F83520122A07D094F83520522AF1
:103D780003D094F83520622A12D15A6890010FD4E2
:103D88005A6842F480425A600AE09A69920611D44D
:103D9800691CFAD035B1FEF70DFF801BA84201D887
:103DA8002368F2E7012384F83530002384F834309F
:103DB800032070BD1022DA612022DA615968064AB0
:103DC8000A405A60042384F836300120002384F81E
:103DD800350084F8343070BD00E800FE2DE9F0416C
:103DE80004460E4690461D46FEF7E4FE0746B8F127
:103DF800000F25D1226893693340B3420ED0691C65
:103E0800F9D07DB1FEF7D6FEC01BA842F2D909E071
:103E18006B1C06D193693340B342F9D00020BDE84A
:103E2800F08145B9012384F83530002384F8343013
:103E38000320BDE8F081FEF7BDFEC01BA842F1D803
:103E48002268E7E770B504460D46FEF7B3FE06465E
:103E580023689B699B071BD420462946FFF776FFFA
:103E6800C0B96A1CF4D06DB994F8363043F0200319
:103E780084F83630012384F83530002384F8343050
:103E8800032070BDFEF796FE801BA842E0D9EBE741
:103E9800002070BD012070BD73B51E464FF400535D
:103EA8000446009315464FF08073F2B2FFF738FFCF
:103EB80020460699FFF7C6FF30B194F83630042B38
:103EC8000CBF0120032017E0012E236808D02A0A1E
:103ED8009A6220460699FFF7B5FF0028EDD12368BE
:103EE800EDB29D62204680210022069BFFF776FFF7
:103EF800002814BF0320002002B070BD73B51E4611
:103F08004FF400530446009315460023F2B2FFF71E
:103F180007FF20460699FFF795FF30B194F8363031
:103F2800042B0CBF0120032017E0012E236808D0C2
:103F38002A0A9A6220460699FFF784FF0028EDD1E5
:103F48002368EDB29D62204640210022069BFFF7C0
:103F580045FF002814BF0320002002B070BD70B5D3
:103F680004460D46FEF726FE064623689B699B0617
:103F780019D420462946FFF7E9FEB0B96DB994F87F
:103F8800363043F0200384F83630012384F8353086
:103F9800002384F83430032070BDFEF70BFE801B2D
:103FA800A842E2D9EBE7002070BD012070BD704740
:103FB80010B50446002841D090F835300BB9FFF70A
:103FC800F6FF022384F835302368E1681A6822F086
:103FD80001021A60626822F070621A619A6822F41B
:103FE80000429A60A26842B1012903D142F400421A
:103FF8009A6007E042F404429A60022904BF4FF431
:1040080000625A605A68616942F0007242F40042E4
:104018005A6022690A43A16942EA0122DA60216AE8
:10402800E2690A431A601A6842F001021A60002025
:10403800012384F8360084F8353010BD012010BD06
:10404800704710B5044688B10268022380F83530FD
:10405800136823F001031360FFF7F2FF002084F8D0
:10406800360084F8340084F8350010BD012010BDF6
:104078002DE9F34790F83550DDF82890BDF82C600D
:10408800DDF830A0EDB2012D0446884664D1B9F1BF
:10409800000F01D1012062E0002EFBD00768BF6944
:1040A80017F4004758D190F834E0BEF1010F53D00F
:1040B8004FF0520E80F835E080F8345080F83670B2
:1040C800CDF800A0FFF7E8FE20B194F8363084F868
:1040D800347031E00090FF2E204641461CD8F2B2E1
:1040E8004FF00073FFF71CFE354620465146FFF798
:1040F800A9FEF8B9236819F8012B9A62013E013D1F
:10410800B6B210D18EB1204680212A465346FFF719
:1041180065FE18BB0095DEE7FF224FF08073FFF7BE
:10412800FFFDFF25E1E7002EDFD120461921FFF72B
:1041380016FF20B194F83630042B0FD1AAE7236874
:104148002022DA615968074A0A405A60012384F834
:10415800353084F8340002E0022000E0032002B089
:10416800BDE8F08700E800FE2DE9F34790F83550E8
:10417800DDF82890BDF82C60DDF830A0EDB2012DF7
:10418800044688466CD1B9F1000F01D1012068E0DE
:10419800002EFBD00768BF6917F4004760D190F87C
:1041A80034E0BEF1010F5BD04FF0620E80F835E0CD
:1041B80080F8345080F83670CDF800A0FFF79EFEE6
:1041C80020B194F8363084F8347038E04FF4105346
:1041D800FF2E00932046414621D8F2B24FF00073DB
:1041E800FFF79EFD35462046042100225346FFF77F
:1041F800F5FD30BB2368013E5B6A09F8013B013DD0
:10420800B6B213D1A6B1204680212A465346FFF7FD
:10421800E5FDB0B9009520464146FF2EDCE7FF22B8
:104228004FF08073FFF77CFDFF25DCE7002EDAD125
:1042380020461921FFF793FE28B194F83630042B55
:10424800A4D003200DE023682022DA615968064AC9
:104258000A405A60012384F8353084F8340000E0BD
:10426800022002B0BDE8F08700E800FE90F83500B3
:1042780070472DE9F04104460F4616461D46FEF7E5
:1042880099FC804623689A683A40B24234D06A1C46
:10429800F9D04DB923685A6822F0E0025A60626882
:1042A800B2F5827F12D106E0FEF784FCC8EB00006D
:1042B800A842E7D9EEE7A268B2F5004F02D0B2F5FE
:1042C800806F03D11A6822F040021A60A26AB2F520
:1042D800005F01BF1A6822F400521A601A6804BF0E
:1042E80042F400521A60012384F85D30002384F8F8
:1042F8005C300320BDE8F0810020BDE8F0812DE9A5
:10430800F34104460F4616461D46FEF753FC804609
:1043180021688A683A40B2423BD0B7F5C06F04D1F1
:104328001EB90B7BDBB28DF807306B1CF1D04DB991
:1043380023685A6822F0E0025A606268B2F5827F08
:1043480012D106E0FEF736FCC8EB0000A842DFD920
:10435800EEE7A268B2F5004F02D0B2F5806F03D144
:104368001A6822F040021A60A26AB2F5005F01BF23
:104378001A6822F400521A601A6804BF42F4005204
:104388001A60012384F85D30002384F85C30032030
:1043980000E0002002B0BDE8F08138B50D460022EB
:1043A8004FF4C0512B460446FFF7A9FF024668B9EF
:1043B800204680212B46FFF75CFF024630B9204695
:1043C8004FF4C0612B46FFF79AFF30B194F85E3086
:1043D80043F0200384F85E30032038BD704770B581
:1043E800044600284CD0022380F85D30FFF7F6FF22
:1043F8002168E2680B68B2F5E06F23F040030B60B8
:104408004FF0000303D91846B2F5706F01E04FF47E
:10441800805018BFA362236B2BB9B2F5E06F8CBF35
:104428000223012323636568A668A3692E432569CF
:104438002E4365692E43E5692E43256A2E43A56AF6
:104448002E4303F4007535430D60256B022D02BF22
:104458000D6845F400650D60656A2A43656B1B0CA1
:10446800154303F0040245EA020303434B60E36A81
:104478000B610020012384F85E0084F85D3070BD74
:10448800012070BD704710B5044688B10268022348
:1044980080F85D30136823F040031360FFF7F2FFE4
:1044A800002084F85E0084F85D0084F85C0010BD8C
:1044B800012010BD2DE9F74F90F85D500C9E4FF08C
:1044C800000B012D0446894692469846ADF806B081
:1044D80001D0022038E1002900F03381002A00F0E1
:1044E8003081002B00F02D81FEF764FB94F85C30DE
:1044F800012B0746EDD0052384F85D30A36A2268B6
:1045080084F85C50B3F5005F08BF136884F85EB0A8
:1045180008BF23F40053C4F840A0A4F84680A4F8C8
:104528004480C4F83890A4F83E80A4F83C8004BFC6
:1045380013601368E16804BF43F400531360B1F5D6
:10454800E06F536802D8B8F1010F02D923F4805301
:1045580001E043F480535360136858065EBF136844
:1045680043F040031360B1F5E06F4BD9E38FB4F823
:104578004600002B34D022689168890711D5A16BB9
:104588000988D160A16B013B02319BB2A163E3872B
:104598003BB9A36AB3F5005F02BF136843F48053C5
:1045A800136068B123689A68D20709D5DA68236C62
:1045B80023F8022B2364B4F84630013BA4F84630B4
:1045C800751CD3D036B9012384F85D30002384F8F4
:1045D8005C30B8E0FEF7EEFAC01BB042C6D9F2E78D
:1045E8000028DED1A36AB3F5005F40F08A805DE061
:1045F80022689168880709D4B4F84630002B26D180
:10460800731C46D1E38F002BF2D14AE0A16B022B39
:104618009FBF4B1CA3630B78137391BFE38F09886B
:10462800D160023B94BF03F1FF33A26BE387E38FB2
:1046380084BF0232A263002BDED1A36AB3F5005F08
:1046480001BF2268136843F480531360D4E72268DB
:104658009168C907D4D5012B236C10D9D16823F8E8
:10466800021B2364B4F84630023B9BB2012BA4F82A
:104678004630C5D8536843F480535360C0E7591C8B
:104688002164127B1A70B4F84630013BA4F8463016
:10469800B6E7002E97D0FEF78DFAC01BB042B1D90D
:1046A80091E7B4F84630002BA6D19BE702212046BB
:1046B8000A463346FFF7DDFD28B194F85E3043F033
:1046C800020384F85E30E368B3F5706F236802D1A3
:1046D800DB689BB213E0216B1B7BADF80630022927
:1046E8000FD120460A463346FFF7C3FD28B194F898
:1046F8005E3043F0020384F85E3023681B7BADF81C
:10470800063020463146FFF748FEE0B92568AA681A
:10471800012312F0100184F85D3094F85E200AD06D
:1047280042F0020284F85E206FF01002AA6084F85A
:104738005C00184608E0101C84F85C1018BF0120C3
:1047480002E0284600E0032003B0BDE8F08F90F8AF
:104758005D00704708B580B1D0F8143213B100235A
:10476800C0F8143209B1C0F81012012380F8FC31E6
:10477800027000F085FC002008BD022008BD19B1B8
:10478800C0F81412002070470220704708B500F0E6
:10479800B5FC002008BD08B5D0F814320BB90220CA
:1047A80008BD1B6898470028F9D108BD08B5D0F89E
:1047B80014325B689847002008BD38B5044600F5F8
:1047C8000275284600F0C8F8012394F80812C4F8C6
:1047D800F431B4F80E32C4F8F83101F01F03012B9C
:1047E8000CD006D3022B0ED12046294600F0F8F94A
:1047F8000EE02046294600F0CFF809E02046294679
:1048080000F0D6F904E0204601F0800100F08EFCAB
:10481800002038BD10B5044609BBD0F8F431032B8D
:1048280026D1D0F80C11D0F8103199420AD9C91AFA
:104838008B4228BF0B46C0F80C1111469AB200F003
:104848006CFA15E0D0F814321B6923B190F8FC21FA
:10485800032A00D19847204600F068FA08E0D0F80B
:1048680014329B6923B190F8FC21032A00D19847A0
:10487800002010BD38B50446A9BBD0F8F431022B8E
:1048880029D1C569036A9D4206D9EB1A1146C3614D
:104898009AB200F029FA1EE08269B2FBF3F503FB35
:1048A80015255DB99A4209D3D0F8F8319A4205D254
:1048B8002A4600F019FAC4F8F8510CE0D4F814327A
:1048C800DB682BB194F8FC21032A01D120469847D4
:1048D800204600F036FA94F80032012B0CD1002360
:1048E80084F8003208E0D0F814325B6923B190F8FC
:1048F800FC21032A00D19847002038BD38B5002193
:1049080004460A464025402300F0FFFB2B46C4F826
:10491800105120468021002200F0F7FB012384F883
:10492800FC31D4F8183225622BB1D4F8143221792D
:104938005B6820469847002038BD01740020704706
:1049480008B590F8FC21032A04D1D0F81432DB69A9
:1049580003B19847002008BD0B7803704B7843706B
:10496800CA788B7803EB022343804A790B7903EBEF
:1049780002238380CA798B7903EB0223C3807047B3
:1049880010B58021044600F0D1FB20460021BDE887
:10499800104000F0CBBB000073B54B7804460D46C1
:1049A800092B00F2FC80DFE813F0CE00E500FA00E6
:1049B800E100FA0077000A00FA00BD0093004B8876
:1049C8001A0A013A062A00F2EA80DFE812F0070024
:1049D8000B001800E800E8003D004900D0F810324C
:1049E8001B682CE0027CD0F814320AB99B6A00E0FC
:1049F800DB6A0DF106009847022301463CE0DBB272
:104A0800052B00F2CC80DFE803F003070B0F131728
:104A1800D0F810325B6812E0D0F810329B680EE0D4
:104A2800D0F81032DB680AE0D0F810321B6906E0D3
:104A3800D0F810325B6902E0D0F810329B69207C14
:104A48000DF10601984709E0037C002B40F0A78090
:104A5800D0F814320DF106005B6B984701460CE064
:104A6800037C002B40F09B80D0F814320DF1060037
:104A78001B6B9847072301464B70BDF80630002B87
:104A880000F09180EA88002A00F08D809A4228BFC1
:104A98001A46ADF8062054E08B88002B7FD1CB88CE
:104AA800002B7CD190F8FC318E78032B06F07F0622
:104AB80075D080F8FE61314600F059FB204600F0C1
:104AC80035F90EB1022300E0012384F8FC316AE0D5
:104AD8008978364E0129317061D890F8FC31022B63
:104AE80002D0032B08D05AE0002954D00121032317
:104AF800416080F8FC310FE031B9022380F8FC31C5
:104B08004160FFF753FE46E04168012943D0C9B22E
:104B1800FFF74CFE317861602046FFF73CFE022823
:104B280039D13CE0CA88012A39D190F8FC31022BEE
:104B380003D0032B33D1011D15E00146002341F8B2
:104B4800083F20460FE090F8FC31023B012B26D8A5
:104B58000123C360D0F804320BB10323C36020469D
:104B680004F10C01022200F0B1F81CE04B88012B83
:104B780019D108E090F8FC31023B012B0FD84B8883
:104B8800012B10D10023C4F80432D4F81432204683
:104B98009B6829469847204600F0C8F803E020465D
:104BA8002946FFF7EDFE002002B070BDF40B00208F
:104BB80038B590F8FC31032B04460D460CD10B791F
:104BC800012B09D8D0F814329B689847EB882BB989
:104BD800204600F0ABF801E0FFF7D2FE002038BD18
:104BE80070B54E788A88012E04460D46D3B210D08F
:104BF80026D3032E4BD190F8FC21022A27D0032A72
:104C080043D14A8892B95E0610D0194600F08EFA50
:104C18000CE090F8FC21022A19D0032A35D14A88E1
:104C2800AABB590608D0194600F087FAD4F81432FE
:104C380020469B6829469847204600F077F826E0EA
:104C480090F8FC51022D02D0032D06D01DE05A0623
:104C58001DD0194600F06AFA19E003F07F0512F03A
:104C6800800F00EB0515194614BF143505F582753C
:104C780000F06AFA10B101232B6000E0286020469A
:104C88002946022200F022F801E0FFF779FE002011
:104C980070BD30B5C8B10446231A14F8015BDBB205
:104CA800002DF9D15B00023313800B7003234B7086
:104CB8000138022310F8014F3CB15A1CD2B2CC542F
:104CC80002330024DBB28C54F4E730BD38B5134608
:104CD8000D460222C0F8F4218361C36100212A46EF
:104CE80000F04CFA002038BD10B50C4613460021E0
:104CF800224600F043FA002010BD38B513460D4691
:104D08000322C0F8F421C0F80831C0F80C310021A2
:104D18002A4600F03AFA002038BD10B50C46134672
:104D28000021224600F031FA002010BD08B500210C
:104D38000423C0F8F4310A460B4600F01FFA00209D
:104D480008BD08B500210523C0F8F4310A460B4612
:104D580000F01BFA002008BDD0F818321BB1002063
:104D6800C3F81402704702207047D0F81C3210B5FF
:104D7800D0F818425BB194F80002FF2807D09B686E
:104D880094F8012221469847FF2384F80032002036
:104D980010BD00004323038000487047180000201E
:104DA8004323038000487047E40000204323038026
:104DB80000487047A00000200A230380004870477D
:104DC8009400002038B50546D0F8184200F0E4F900
:104DD800D5F81832C4F80C024BB1D5F81C32D4F807
:104DE8000402DB6804F503719847002038BD0220EF
:104DF80038BDF8B50C460978D0F8185201F06003B0
:104E0800202B064620D1E2886378BAB109060BD573
:104E1800D0F81C1218468F682946B84730462946EC
:104E2800E288FFF753FF0FE085F80032E38885F842
:104E380001322946E288FFF760FF05E0D0F81C122E
:104E480018468C681146A0470020F8BD10B581218E
:104E5800044600F064F90121204600F060F920467C
:104E6800822100F05CF9D4F8183253B1D4F81C321E
:104E78005B689847D4F8180200F098F90023C4F842
:104E88001832002010BDF8B5037C044681210222A7
:104E98004BB94FF4007300F038F920460121022283
:104EA8004FF4007306E0402300F02FF9204601215B
:104EB8000222402300F029F98221032208232046F8
:104EC80000F023F94FF4077000F06CF90646C4F8B7
:104ED8001802C8B1D4F81C321B689847277CD6F84A
:104EE80004220025C6F814522046C6F8185201219B
:104EF8002FB94FF4007300F048F93846F8BD402345
:104F080000F043F92846F8BD0120F8BD19B1C0F8F2
:104F18001C120020704702207047D0F81832002079
:104F2800C3F80812C3F810227047D0F818320020CE
:104F3800C3F80412704738B5D0F8185275B1D5F8CF
:104F480014426CB9B5F81032D5F80822812100F066
:104F580015F90123C5F81432204638BD022038BDA2
:104F6800012038BDD0F8183210B563B1047CD3F8ED
:104F78000422012114B94FF4007300E0402300F02B
:104F880004F9002010BD022010BD00002DE9F041F9
:104F9800244C636943F400336361636986B043F466
:104FA800802363614FF4C056112300254FF0030896
:104FB8000E2701A94FF09040029301960395CDF872
:104FC80010800597FDF76EFE31462A464FF0904057
:104FD800FDF732FF0120FDF7F3FD314601224FF0C6
:104FE8009040FDF729FF022301A94FF0904002935A
:104FF80001960395CDF810800597FDF753FEE369F8
:1050080043F40003E361A36943F00103A3610521AD
:105018002A461420FDF7F4FD1420FDF721FE06B002
:10502800BDE8F08100100240014601F5A271D0F8F8
:105038007401FFF7C2BB1C2303FB0103D0F8740102
:10504800D3F8C420FFF7E6BB1C2303FB0103D0F809
:1050580074019A6BFFF70EBCD0F87401FFF770BCAF
:1050680010B504460121D0F87401FFF766FCD4F8A6
:105078007401BDE81040FFF741BC7047704700005D
:1050880038B51C4A05461C48C5F8200208230024E8
:1050980080E80C000223C46003618360C0F8745187
:1050A800FDF7D3FE21462246D5F820024023FEF71D
:1050B800F4FD802122460B46D5F82002FEF7EDFDCF
:1050C8002246D5F820028121C023FEF7E6FD2246BC
:1050D800D5F8200201214FF48873FEF7DEFDD5F8DC
:1050E8002002822122464FF48073FEF7D6FD204627
:1050F80038BD00BF005C0040F83B002008B5D0F880
:105108002002FDF7EFFE002008BD10B51446D0F8C8
:1051180020021A462346FDF701FF002010BD08B5FE
:10512800D0F82002FEF796F8002008BD08B5D0F8A0
:105138002002FEF7FDFC002008BD08B5D0F82002CB
:10514800FEF747FD002008BD11F0800FD0F820229F
:1051580018BF01F07F034FF01C0015BF00FB0321AF
:1051680000FB012191F82A0091F8B600704708B5B4
:10517800D0F82002FDF7BCFE002008BD08B5D0F825
:105188002002FEF7C1F9002008BD08B5D0F82002BA
:10519800FEF738F9002008BD08B5D0F82002FEF760
:1051A800ABF908BD00487047F80B002070470000B5
:1051B80012230B8000487047A9AE010804230B8016
:1051C8000048704758AE010830B50024E3B2934256
:1051D8000DD2030F092B94BF3033373301F8143045
:1051E80001EB4403002500015D700134EEE730BD9A
:1051F8001A2310B5094A0B80094B50681B681468BC
:10520800181808D007490822FFF7DEFF204606498C
:105218000422FFF7D9FF054810BD00BFB0F7FF1FF4
:10522800ACF7FF1F46010020560100204401002072
:1052380010B5044C04480A462146FFF72AFD2046CB
:1052480010BD00BF703D00205CAE010810B5044CD5
:1052580004480A462146FFF71CFD204610BD00BF42
:10526800703D00207DAE010810B5044C04480A4684
:105278002146FFF70EFD204610BD00BF703D0020FF
:1052880090AE010810B5044C04480A462146FFF7C1
:1052980000FD204610BD00BF703D00209BAE0108F8
:1052A8000020704708B50B460246114600201A68D0
:1052B800FCF764FD0248FFF755FE002008BD00BF5B
:1052C800D039002008B503490348FFF72EFE002017
:1052D80008BD00BFE03E0020D0390020202812D0B1
:1052E800212822D1124B1A680A701A68120A4A70C9
:1052F8005A888A70DA78CA701A790A715A794A71A2
:105308009B798B7111E08B784A7809481B0443EA32
:1053180002230A781343CA7843EA026303600B79CD
:1053280003714B7943718B7983710020704700BFFB
:105338006001002010B51C4C86B02046FFF707FA24
:1053480000282ED1194B23601823E3610723E36259
:105358004FF4E063E3604FF40073A3614FF482738A
:105368006360134BA06060612061A062206260628C
:105378009A6942F480529A615A6942F400325A6139
:10538800E0230193022302930323039004934FF035
:105398009040052301A90593FDF784FC2046FFF7FB
:1053A8001EF806B010BD00BF280E002000300140D6
:1053B800001002407FB500238DF817300B4B8DF895
:1053C8000F001B6800930A480DF10F010DF1170239
:1053D8000123FFF76FF820B10548FFF754F8FFF7EE
:1053E800A9FF9DF8170007B05DF804FB78010020BD
:1053F800280E002030B5164C87B02046FEF736FF41
:1054080018BB144B23603223A360134D2061012382
:105418006061E0612062E3606B69104843F48023B7
:105428006B61C02301930223029303930323049324
:1054380004230DEB03010593FDF734FCEB6943F4FA
:105448000013EB612046FEF7B3FD07B030BD00BF87
:10545800880E00200054004000100240000400485C
:1054680070B5044686B068B101280BD0022809D06F
:10547800032807D0042805D0052803D0062801D022
:10548800072804D10D4A536943F4001353610C4BA8
:105498000C4E33F8145056F824000195012302935A
:1054A800039301A903230493FDF7FCFB56F824009A
:1054B80029460022FDF7C0FC06B070BD001002406E
:1054C800BCAE010884010020044A034652F82000BB
:1054D800034A32F813100122FDF7AEBC8401002004
:1054E800BCAE0108044A034652F82000034A32F8C9
:1054F80013100022FDF7A0BC84010020BCAE0108F7
:10550800044A034652F82000034A32F81310FDF704
:1055180098BC00BF84010020BCAE010810B5194B2F
:1055280086B018B95A6942F400325A619A6942F051
:1055380001029A6169B901230193022303930323AA
:105548000493114B029153F8200001A9FDF7AAFB1F
:1055580016E0012914D1032304930C4B02930A4B40
:10556800019153F82000002401A90394FDF79AFB48
:1055780006200F212246FDF743FB0620FDF770FBAE
:1055880006B010BD001002407C0100200000111080
:1055980008B5034B012153F82000FDF747FC08BD6F
:1055A8007C0100202DE9F043164C174D636987B044
:1055B80043F40013636100264FF008094FF0010817
:1055C8000327284601A9CDF80490CDF80880039652
:1055D8000497FDF767FB424628464946FDF72CFC31
:1055E800636943F4001363612846062301A9019304
:1055F800029604970396FDF755FBFFF79BFE07B04D
:10560800BDE8F0830010024000100048012A70B580
:105618000D46064688BF41F040050C48144608214F
:105628000022FDF709FC2846FFF7C4FE34B116F83E
:10563800010B013CFFF7BEFEA4B2F7E703480821BF
:105648000122BDE87040FDF7F7BB00BF001000481D
:10565800012A70B58CBF41F0C00541F080050646AF
:1056680014460C4808210022FDF7E6FB2846FFF700
:10567800A1FE3CB10020FFF79DFE013C06F8010B9E
:10568800A4B2F6E7034808210122BDE87040FDF7FF
:10569800D3BB00BF00100048164B5A6970B542F4DE
:1056A80000125A615A69144D42F4001286B05A61C8
:1056B800042300240DEB03010326284601930294DA
:1056C80003940496FDF7EEFA224621460820FDF7DA
:1056D80097FA0820FDF7C4FA3023284601A9019358
:1056E800029404960394FDF7DDFAFFF783FE06B0F3
:1056F80070BD00BF001002400010004810B50E4AEF
:105708000E48536986B043F4001353613023019364
:105718000B4B02930024032301A904930394FDF780
:10572800C1FA214622460A20FDF76AFA0A20FDF747
:1057380097FA06B010BD00BF0010024000100048E4
:105748000000111010B586B006AB044603F8012D11
:105758000A46009308490948012301930968029100
:105768002146FEF785FC20B10448FEF76AFCFFF7E6
:1057780041FE06B010BD00BF80010020880E002049
:1057880010B586B006AB002203F8012D0A46009337
:1057980009490123019304460968029107482146F3
:1057A800FEF7E2FC20B10548FEF74BFCFFF722FEAE
:1057B8009DF8170006B010BD80010020880E00205B
:1057C80038B5094C6368984733280BD1074D2368CF
:1057D8002C6040F6470098472B6890201B6A984732
:1057E800002038BD012038BDA4010020C00E0020D3
:1057F800024B1B689B6A03B118477047C00E002014
:1058080038B50E4C63689847D42825460FD10C4C00
:105818002B68256041F23F009847236800201B6AE7
:105828009847236810205B6A9847002038BD636852
:105838009847D528EBD0012038BD00BFD001002003
:10584800C40E0020024B1B689B6A03B118477047BF
:10585800C40E002010B50446FFF71EFFE2B2322046
:105868002021FFF76FFF322023210022BDE81040DE
:10587800FFF768BF08B5FFF70FFF32200F21BDE81B
:105888000840FFF77DBF08B524213220FFF778FFD5
:1058980060F07F0224213220D2B2BDE80840FFF731
:1058A80051BF10B5212104463220FFF769FF00F0EF
:1058B8000C02224332202121BDE81040FFF742BFED
:1058C80010B5212104463220FFF75AFF00F0F702F5
:1058D800224332202121BDE81040FFF733BFF0B545
:1058E800232185B005463220FFF74AFF24210446CC
:1058F8003220FFF745FF28213220FFF741FF2921F9
:105908008DF808003220FFF73BFF2A218DF80900A7
:105918003220FFF735FF2B218DF80A003220FFF7E0
:105928002FFF2C218DF80B003220FFF729FF2D21A6
:105938008DF80C003220FFF723FF14F0400F9DF97B
:1059480009609DF908709DF90B209DF90A109DF9D1
:105958000C3040B216D107EB062601EB0222ADF857
:105968000060ADF8022003EB002004F03004202C86
:10597800ADF8040011D0302C11D0102C0CBF02232C
:1059880001230DE006EB072602EB0122ADF80060CB
:10599800ADF8022000EB0320E7E7042300E00C2326
:1059A800BDF800209BB212FB03F22A80BDF802204A
:1059B80012FB03F26A80BDF8042012FB03F3AB80EC
:1059C80005B0F0BD10B5212104463220FFF7D8FEFE
:1059D80000F0FB02224332202121BDE81040FFF7EE
:1059E800B1BE10B5222104463220FFF7C9FE40EAB5
:1059F800040222213220D2B2BDE81040FFF7A2BE35
:105A080010B5382104463220FFF7BAFE40EA0402F6
:105A180038213220D2B2FFF795FE32203A210A22ED
:105A2800FFF790FE32203B210522FFF78BFE322044
:105A38003C210522FFF786FE32203D210246BDE8C3
:105A48001040FFF77FBE08B5FFF758FE8020FFF72C
:105A5800C8FF0420FFF7B6FF1020BDE80840FFF795
:105A6800CFBF37B502AC002305468DF80730FFF7E6
:105A780099FD04F8015D202120460122FFF7C6FDAB
:105A88002D0A2046232101228DF80750FFF7BEFD7D
:105A980003B030BD07B5FFF785FD0DF107000F21F5
:105AA8000122FFF7D5FD9DF8070003B05DF804FB60
:105AB80007B524210DF107000122FFF7C9FD9DF864
:105AC80007300DF1070063F07F03242101228DF8D0
